:100000000C9446000C9465000C9465000C946500FB
:100010000C9465000C9465000C9465000C946500CC
:100020000C9465000C9465000C9465000C946500BC
:100030000C9465000C94DE000C9465000C94650033
:100040000C9465000C9465000C9465000C9465009C
:100050000C9465000C9465000C9465000C9465008C
:100060000C9465000C9465000C9465000C9465007C
:100070000C9465000C9465000C9465000C9465006C
:100080000C9465000C9465000C94650011241FBE4F
:10009000CFEFD0E4DEBFCDBF11E0A0E0B1E0E8EAF1
:1000A000F6E000E00BBF02C007900D92A633B10747
:1000B000D9F721E0A6E3B1E001C01D92A534B20753
:1000C000E1F70E94E7020C9452030C940000CF93D6
:1000D000DF9300D01F92CDB7DEB789837B836A831D
:1000E00089818A3031F48A819B81BC018DE00E9434
:1000F000670080EC90E0FC018081882F90E08072A6
:100100009927892BB1F386EC90E02981FC012083AB
:1001100080E090E00F900F900F90DF91CF910895C5
:10012000CF93DF93CDB7DEB781E890E02BE0FC0101
:10013000208388E890E02DE730E0FC0131832083C4
:100140008FE690E022E0FC01208384E890E0FC014F
:100150001182108280910E0190910F01A0911001E7
:10016000B09111018093370190933801A093390128
:10017000B0933A018FE590E02FE530E0F90120815E
:100180002068FC0120830000DF91CF910895CF9378
:10019000DF93CDB7DEB781E890E0FC01108200006C
:1001A000DF91CF910895CF93DF93CDB7DEB781E094
:1001B000809336010000DF91CF9108951F920F9236
:1001C00000905F000F92112400905B000F922F931C
:1001D0003F934F935F936F937F938F939F93AF93CF
:1001E000BF93EF93FF93CF93DF93CDB7DEB78091AB
:1001F000370190913801A0913901B0913A010197EE
:10020000A109B1098093370190933801A093390176
:10021000B0933A018091370190913801A091390152
:10022000B0913A01892B8A2B8B2B91F40E94D30039
:1002300080910E0190910F01A0911001B0911101D8
:100240008093370190933801A0933901B0933A011C
:100250000000DF91CF91FF91EF91BF91AF919F91FE
:100260008F917F916F915F914F913F912F910F905F
:1002700000925B000F9000925F000F901F90189506
:10028000CF93DF9300D000D0CDB7DEB769837A83F8
:100290008B839C8389819A81AB81BC8180930E0181
:1002A00090930F01A0931001B093110180910E0162
:1002B00090910F01A0911001B0911101809337012D
:1002C00090933801A0933901B0933A0100000F9048
:1002D0000F900F900F90DF91CF910895CF93DF9300
:1002E000CDB7DEB780913D0190913E0181309105FF
:1002F000A1F08130910540F08230910509F4D4C01D
:10030000039709F471C02EC181E090E090933E0103
:1003100080933D0110923C0131C180E290E0FC01EC
:100320008081882F90E083709927892BE1F080E20B
:1003300090E0FC018081882F90E0837099270197DD
:1003400021F480913C01893071F080E290E0FC0161
:100350008081882F90E083709927029759F48091CB
:100360003C01882339F481E090E090933E01809332
:100370003D0139C080E290E0FC018081882F90E04F
:1003800083709927039749F481E090E090933E01B0
:1003900080933D0110923C01F1C080E290E0FC01AD
:1003A0008081882F90E083709927019781F4809154
:1003B0003C01893060F483E090E090933E018093AB
:1003C0003D0180913C018F5F80933C010CC082E035
:1003D00090E090933E0180933D0180913C018150DB
:1003E00080933C01CBC0CAC080E290E0FC018081D8
:1003F000882F90E083709927892B71F080E290E03C
:10040000FC018081882F90E083709927029759F42E
:1004100080913C01882339F481E090E090933E0183
:1004200080933D01A8C080E290E0FC018081882F8C
:1004300090E083709927039749F481E090E09093CE
:100440003E0180933D0110923C0195C080E290E016
:10045000FC018081882F90E0837099270197C1F477
:1004600083E090E090933E0180933D0180913B01B9
:100470008A3009F080C080913C01893008F07BC04F
:1004800080913C018F5F80933C0110923B0173C0CF
:1004900082E090E090933E0180933D0180913C0189
:1004A000815080933C0167C080E290E0FC01808134
:1004B000882F90E083709927892B71F080E290E07B
:1004C000FC018081882F90E083709927019759F46F
:1004D00080913C01893039F481E090E090933E01B5
:1004E00080933D014AC080E290E0FC018081882F2A
:1004F00090E083709927039749F481E090E090930E
:100500003E0180933D0110923C0137C080E290E0B3
:10051000FC018081882F90E0837099270297B1F4C5
:1005200082E090E090933E0180933D0180913B01F9
:100530008A3019F580913C018823F9F080913C01C3
:10054000815080933C0110923B0117C083E090E002
:1005500090933E0180933D0180913C018F5F809399
:100560003C010BC010923E0110923D0182E191E0EE
:100570000E94220303C0000001C0000080913D01E1
:1005800090913E0181309105A1F081309105A0F05C
:100590008230910541F0039781F480913B018F5F98
:1005A00080933B010AC080913B018F5F80933B01A8
:1005B00004C010923B0101C0000085E290E0209150
:1005C0003C01FC0120830000DF91CF910895CF937F
:1005D000DF9300D0CDB7DEB781E290E0FC0110825E
:1005E00082E290E02FEFFC01208384E290E02FEF85
:1005F000FC01208385E290E0FC01108210923C0116
:1006000083E391E09A83898364E670E080E090E080
:100610000E9440010E94900010923E0110923D0104
:1006200082E290E020E230E0F9012081FC012083A9
:100630000E946E010000809136018823E1F3109240
:100640003601F6CF0F931F93CF93DF93E0914101D3
:10065000F0914201238121FF1BC08C01D0E0C0E05A
:10066000F80181918F016091410170914201DB019C
:100670001896ED91FC911997882331F00995892BF3
:1006800079F3DFEFCFEFECCF8AE00995892B19F0F2
:100690008FEF9FEF02C08D2F9C2FDF91CF911F9185
:0806A0000F910895F894FFCFBB
:1006A80000000002000000006700000000000100D8
:1006B8000000736F6D657468696E672077726F6E7E
:1006C8006720696E20666972737420737769746332
:0606D80068200030000064
:00000001FF
