:100000000C9446000C9465000C9465000C946500FB
:100010000C9465000C9465000C9465000C946500CC
:100020000C9465000C9465000C9465000C946500BC
:100030000C9465000C94DE000C9465000C94650033
:100040000C9465000C9465000C9465000C9465009C
:100050000C9465000C9465000C9465000C9465008C
:100060000C9465000C9465000C9465000C9465007C
:100070000C9465000C9465000C9465000C9465006C
:100080000C9465000C9465000C94650011241FBE4F
:10009000CFEFD0E4DEBFCDBF11E0A0E0B1E0E4EDF2
:1000A000F3E000E00BBF02C007900D92AE30B10745
:1000B000D9F721E0AEE0B1E001C01D92AA31B2074C
:1000C000E1F70E94BF010C94E8010C940000CF936B
:1000D000DF9300D01F92CDB7DEB789837B836A831D
:1000E00089818A3031F48A819B81BC018DE00E9434
:1000F000670080EC90E0FC018081882F90E08072A6
:100100009927892BB1F386EC90E02981FC012083AB
:1001100080E090E00F900F900F90DF91CF910895C5
:10012000CF93DF93CDB7DEB781E890E02BE0FC0101
:10013000208388E890E02DE730E0FC0131832083C4
:100140008FE690E022E0FC01208384E890E0FC014F
:100150001182108280910F0190911001A0911101E4
:10016000B09112018093130190931401A093150193
:10017000B09316018FE590E02FE530E0F901208182
:100180002068FC0120830000DF91CF910895CF9378
:10019000DF93CDB7DEB781E890E0FC01108200006C
:1001A000DF91CF910895CF93DF93CDB7DEB781E094
:1001B00080930E010000DF91CF9108951F920F925E
:1001C00000905F000F92112400905B000F922F931C
:1001D0003F934F935F936F937F938F939F93AF93CF
:1001E000BF93EF93FF93CF93DF93CDB7DEB78091AB
:1001F000130190911401A0911501B091160101977E
:10020000A109B1098093130190931401A0931501E2
:10021000B09316018091130190911401A0911501E2
:10022000B0911601892B8A2B8B2B91F40E94D3005D
:1002300080910F0190911001A0911101B0911201D4
:100240008093130190931401A0931501B0931601AC
:100250000000DF91CF91FF91EF91BF91AF919F91FE
:100260008F917F916F915F914F913F912F910F905F
:1002700000925B000F9000925F000F901F90189506
:10028000CF93DF9300D000D0CDB7DEB769837A83F8
:100290008B839C8389819A81AB81BC8180930F0180
:1002A00090931001A0931101B093120180910F015E
:1002B00090911001A0911101B0911201809313014E
:1002C00090931401A0931501B093160100000F90B4
:1002D0000F900F900F90DF91CF910895CF93DF9300
:1002E000CDB7DEB780911801909119018130910549
:1002F00081F08130910530F08230910589F00397CB
:10030000B1F01CC081E090E0909319018093180136
:1003100015C082E090E090931901809318010EC0FF
:1003200083E090E0909319018093180107C081E069
:1003300090E09093190180931801000080911801BA
:10034000909119018130910549F08130910590F02B
:100350008230910539F0039749F00DC081E0809318
:10036000170109C082E08093170105C084E08093E3
:10037000170101C000000000DF91CF910895CF93D5
:10038000DF93CDB7DEB784E290E02FEFFC0120834E
:1003900085E290E0FC01108268EE73E080E090E07E
:1003A0000E9440010E9490001092190110921801C1
:1003B0000E946E0185E290E020911701FC012083EC
:1003C000000080910E018823E1F310920E01F0CF1E
:0403D000F894FFCFCF
:0E03D4000000000200000000670000000000B2
:00000001FF
