:100000000C9446000C9465000C9465000C946500FB
:100010000C9465000C9465000C9465000C946500CC
:100020000C9465000C9465000C9465000C946500BC
:100030000C9465000C94DE000C9465000C94650033
:100040000C9465000C9465000C9465000C9465009C
:100050000C9465000C9465000C9465000C9465008C
:100060000C9465000C9465000C9465000C9465007C
:100070000C9465000C9465000C9465000C9465006C
:100080000C9465000C9465000C94650011241FBE4F
:10009000CFEFD0E4DEBFCDBF11E0A0E0B1E0ECEBEC
:1000A000F4E000E00BBF02C007900D92AE30B10744
:1000B000D9F721E0AEE0B1E001C01D92A931B2074D
:1000C000E1F70E946E010C945C020C940000CF9347
:1000D000DF9300D01F92CDB7DEB789837B836A831D
:1000E00089818A3031F48A819B81BC018DE00E9434
:1000F000670080EC90E0FC018081882F90E08072A6
:100100009927892BB1F386EC90E02981FC012083AB
:1001100080E090E00F900F900F90DF91CF910895C5
:10012000CF93DF93CDB7DEB781E890E02BE0FC0101
:10013000208388E890E02DE730E0FC0131832083C4
:100140008FE690E022E0FC01208384E890E0FC014F
:100150001182108280910F0190911001A0911101E4
:10016000B09112018093130190931401A093150193
:10017000B09316018FE590E02FE530E0F901208182
:100180002068FC0120830000DF91CF910895CF9378
:10019000DF93CDB7DEB781E890E0FC01108200006C
:1001A000DF91CF910895CF93DF93CDB7DEB781E094
:1001B00080930E010000DF91CF9108951F920F925E
:1001C00000905F000F92112400905B000F922F931C
:1001D0003F934F935F936F937F938F939F93AF93CF
:1001E000BF93EF93FF93CF93DF93CDB7DEB78091AB
:1001F000130190911401A0911501B091160101977E
:10020000A109B1098093130190931401A0931501E2
:10021000B09316018091130190911401A0911501E2
:10022000B0911601892B8A2B8B2B91F40E94D3005D
:1002300080910F0190911001A0911101B0911201D4
:100240008093130190931401A0931501B0931601AC
:100250000000DF91CF91FF91EF91BF91AF919F91FE
:100260008F917F916F915F914F913F912F910F905F
:1002700000925B000F9000925F000F901F90189506
:10028000CF93DF9300D000D0CDB7DEB769837A83F8
:100290008B839C8389819A81AB81BC8180930F0180
:1002A00090931001A0931101B093120180910F015E
:1002B00090911001A0911101B0911201809313014E
:1002C00090931401A0931501B093160100000F90B4
:1002D0000F900F900F90DF91CF910895CF93DF9300
:1002E00000D000D000D0CDB7DEB781E290E0FC01B5
:1002F000108282E290E02FEFFC01208384E290E004
:100300002FEFFC01208385E290E0FC0110826CE27B
:1003100071E080E090E00E9440010E94900025E0A2
:10032000CE010296FC01322F11923A95E9F781E055
:100330008A8382E08B8384E08C8382E08D831982C0
:10034000109218011092170182E290E020E230E052
:10035000F9012081FC0120838091170190911801FF
:100360008230910509F454C08330910528F4009738
:1003700051F00197A9F18AC08330910509F461C059
:10038000049749F083C084E090E090931801809333
:10039000170119827BC080E290E0FC018081882FE8
:1003A00090E081709927892B39F081E090E090935B
:1003B0001801809317016AC084E090E090931801BF
:1003C000809317018981882F90E00196837090783F
:1003D000992324F401978C6F9F6F0196898356C0EF
:1003E00080E290E0FC018081882F90E08170992765
:1003F000892B39F081E090E09093180180931701E8
:1004000045C082E090E090931801809317013EC0B0
:1004100080E290E0FC018081882F90E08170992734
:10042000892B41F083E090E09093180180931701AD
:1004300019822CC082E090E09093180180931701FC
:1004400025C080E290E0FC018081882F90E08170DF
:100450009927892BA1F083E090E090931801809375
:1004600017018981882F90E00196837090789923F5
:1004700024F401978C6F9F6F0196898306C084E0F6
:1004800090E09093180180931701000085E290E0BE
:100490002981222F30E0AE014E5F5F4F240F351FC0
:1004A000F9012081FC012083000080910E01882346
:0C04B000E1F310920E0150CFF894FFCF42
:0E04BC000000000200000000670000000000C9
:00000001FF
